:100000003EC000006DC000006BC0000069C0000071
:1000100067C0000065C0000063C0000061C0000050
:100020005FC000005DC000005BC0000059C0000060
:1000300057C0000055C0000053C000005BC2000064
:100040004FC000004DC000004BC0000049C0000080
:1000500047C0000045C0000043C0000041C0000090
:100060003FC000003DC000003BC0000039C00000A0
:1000700037C0000035C0000033C00000B6031124B3
:100080001FBECFEFCDBFDFE3DEBF80914000809386
:100090004000811105C098ED21E094BF20934100FC
:1000A0008CBB18E3A0E0B8E3E0E4FAE002C00590FE
:1000B0000D92AA30B107D9F728E3AAE0B8E301C04E
:1000C0001D92A434B207E1F710E0CFE3D0E003C003
:1000D0002197FE0181D4CE33D107D1F73AD282C421
:1000E0008FCFCF92DF92EF92FF92CF93DF93EC010D
:1000F0008A85823029F58FB7F894C0903E38D09029
:100100003F38E0904038F09041388FBF8C819D811E
:10011000AE81BF81B701A601481B590B6A0B7B0B4F
:1001200088819981AA81BB81481759076A077B0793
:1001300038F0E885F9850995CC82DD82EE82FF8270
:10014000DF91CF91FF90EF90DF90CF900895CF9304
:10015000DF93823108F047C090E0EC01C25DD547E3
:1001600028812F3F09F43FC0AC01445E5547DA01B6
:10017000EC91B0E2EB9FF0011124FC5F611136C0FD
:10018000268330812323A1F49C01265F3547D901C2
:100190002C91309769F1283058F57096E20FF11DD7
:1001A0003FB7F8942081611126C0277F20833FBF8D
:1001B00088509647FC0190819923A9F0888190345A
:1001C00009F1983FE1F0903171F4DA019C9191309E
:1001D000A1F4853010F0880F82959091010A8095E6
:1001E00089238093010ADF91CF9108952583C9CF98
:1001F000F0E0E0E0D5CF2860D9CF880FEECF1092A5
:10020000A006F1CF823019F180E49091920A9823F0
:1002100051F34FB7F8949091800A9E7F9093800A93
:100220002091920A90E08095909530E0822393236C
:1002300028ED24BF8093920A80918E0A80FFFCCF24
:100240008091800A81608093800A4FBFCCCF80E884
:10025000DCCF0F931F93CF93DF9380912D388823AA
:1002600011F108EE19E8D0E0C0E0F80180810E5FDE
:100270001F4F20910A3830910B3861E02C173D0751
:1002800009F060E064DF2196C430D10571F78091F8
:100290000A3890910B380196843091054CF4809384
:1002A0000A3890930B38DF91CF911F910F910895E9
:1002B00010920A3810920B38F6CF8231E0F490E0B9
:1002C000FC01E25DF54720812F3FA9F0FC01E45ECF
:1002D000F547E08130E2E39FF0011124FC5F6623E3
:1002E00059F02183865F9547DC018C91E80FF11D61
:1002F0008089877F808B08952283F4CFCF938231CA
:1003000008F093C0282F30E0F901E25DF5479081B5
:100310009F3F09F48AC0C82FF901E850F647808151
:10032000803409F43BC0883F89F1803109F078C0FE
:10033000161617063CF060E08C2F09DF61E08C2F69
:10034000CF91BBCF6F3F710514F061E0F5CF9530D1
:1003500048F0990F245E3547F9018081E1E0813052
:1003600011F49295E0E0892F847459F0EC5FF0E08D
:10037000E85DF54F60838091010A982B9093010A04
:10038000DDCF892F827299F3EE5FF1CF6093A106E2
:100390008091A00681648093A006D0CF1616170620
:1003A00054F66F3F71058CF64FB7F89480918E0A22
:1003B00083708330D9F72FEF30E0261B370B220FE5
:1003C000331F21503109923009F52093AC0A309344
:1003D000AD0A90E88091920A8923F1F48091800A15
:1003E0008E7F8093800A8091920A892B90E028ED7D
:1003F00024BF8093920A80918E0A80FFFCCF809167
:10040000800A81608093800A4FBF98CF2093A80A0A
:100410003093A90A90E4DECF81E08093840AF4CF80
:10042000603871050CF487CF90CFCF9108958091FB
:100430002F38882379F1609102387091033880E178
:100440005DDF609102387091033880E057DF609182
:1004500002387091033881E051DF60910238709169
:1004600003388AE04BDF8091023890910338209165
:10047000003830910138820F931F80930238909397
:1004800003388A3F91053CF08FEF9FEF809300384F
:100490009093013808950B97ECF781E090E0F6CF48
:1004A000CF92DF92EF92FF921F93CF93DF938091D1
:1004B0002E388823B9F0C0EFD9E88EEFC82ED12CA2
:1004C000E12CF12CD7D118812296A701960127D2D1
:1004D0006F5F7F4F8F4F9F4F812F10DF89E8C83F9D
:1004E000D80781F7DF91CF911F91FF90EF90DF90B8
:1004F000CF9008958F9381E080938D0A8FB78F936B
:10050000EF93FF93EAE3F8E39F9368948FEF0DC0B6
:10051000E89484819581805D9C4F84839583885E77
:10052000934080F0848395838FEF9081981B919303
:1005300090819F4F919390819F4F919390819F4F76
:10054000919336F39F91FF91EF918F918FBF8F9190
:10055000189588ED90E084BF90936100E0E0F6E0AC
:1005600083E582838DE0858380E2838381E08083DD
:10057000109202028093030A9EEF9093260A9093B2
:10058000270A9BE09093000AE0E8FAE02DEF31E0C3
:1005900026A737A7118290E89283848781E1808320
:1005A000789461E080E189DE61E080E086DE61E0F0
:1005B00081E083DE61E08AE080DE60E082E07DDE73
:1005C00001E010E0FF24F39480910804C1E0D0E042
:1005D000282F207486FD02C0D0E0C0E0809138381A
:1005E00090913938C817D90799F03FB7F89480919E
:1005F0003E3890913F38A0914038B09141383FBF8C
:100600008093343890933538A0933638B093373888
:100610003FB7F89480913E3890913F38A091403890
:10062000B09141383FBF4091343850913538609196
:10063000363870913738841B950BA60BB70BC397D0
:10064000A105B10528F18091323890913338C8174F
:10065000D907F1F08091043890910538C093323871
:10066000D09333382223A1F001968A30910524F5E6
:1006700080930438909305388091303890913138C8
:100680004E968F3F9105ECF480933038909331383B
:10069000E0910438F0910538EA30F10528F5EE5A7A
:1006A000FC4F9AC1660382038A0392039D03A2034F
:1006B000A703A903AC03B1031092043810920538C4
:1006C000DBCF0093303810933138E2CF10922F38BF
:1006D00061E080E13CDD61E080E039DD61E081E006
:1006E00036DD61E08AE033DDC0933838D0933938A5
:1006F00082E298E3F6DC87E198E3F3DC8CE098E3B0
:10070000F0DC62CF61E080E122DD60E080E01FDDAF
:1007100060E0E5CF60E080E11ADD61E080E017DDB8
:1007200061E007C061E080E112DD60E080E00FDDA4
:1007300060E081E00CDD60E0D5CF60E080E107DDC6
:1007400061E0F4CF60E080E102DD60E0E7CF60E0EF
:10075000DACFF0922E38C8CF10922E38F0922D3882
:10076000C3CF10922D38F0922F38BECFE2E2F8E3DB
:1007700082E0828744E650E060E070E0408351838D
:100780006283738320E532E02087318714821582EB
:1007900016821782E7E1F8E3828748EC50E060E0D8
:1007A00070E0408351836283738329E231E02087C4
:1007B00031871482158216821782ECE0F8E3828773
:1007C0008FE090E0A0E0B0E080839183A283B383C8
:1007D00087E192E0808791871482158216821782C2
:1007E00008958F929F92AF92BF92CF92DF92EF9235
:1007F000FF92CF93DF93EC01688179818A819B819D
:10080000611571058105910521F464E279ED8BE5AF
:1008100097E02DE133EF41E050E081D049015A01EA
:100820009B01AC01A7EAB1E496D06B017C01ACEE70
:10083000B4EFA50194019BD0C60ED71EE81EF91E89
:10084000F7FE06C081E0C81AD108E10880E8F80A7E
:10085000C882D982EA82FB82C701B6019F77DF9105
:10086000CF91FF90EF90DF90CF90BF90AF909F908F
:100870008F9008958F929F92AF92BF92CF92DF9206
:10088000EF92FF9260910638709107388091083896
:1008900090910938611571058105910521F464E293
:1008A00079ED8BE597E02DE133EF41E050E037D073
:1008B00049015A019B01AC01A7EAB1E44CD06B019C
:1008C0007C01ACEEB4EFA501940151D0C60ED71E49
:1008D000E81EF91EF7FE06C081E0C81AD108E1083B
:1008E00080E8F80AC0920638D0920738E0920838BB
:1008F000F0920938C701B6019F77FF90EF90DF9023
:10090000CF90BF90AF909F908F90089560930638DE
:100910007093073880930838909309380895052E0E
:1009200097FB16F400940FD057FD05D024D007FC98
:1009300002D046F408C050954095309521953F4F20
:100940004F4F5F4F089590958095709561957F4FBB
:100950008F4F9F4F089531D0A59F900DB49F900D5C
:10096000A49F800D911D11240895B7FFF4CFF3DFEC
:10097000821B930B0895A1E21A2EAA1BBB1BFD013B
:100980000DC0AA1FBB1FEE1FFF1FA217B307E4076E
:10099000F50720F0A21BB30BE40BF50B661F771FC6
:1009A000881F991F1A9469F76095709580959095A6
:1009B0009B01AC01BD01CF010895A29FB001B39F7F
:1009C000C001A39F700D811D1124911DB29F700D58
:1009D000811D1124911D0895EE0FFF1F0590F491C4
:0809E000E02D0994F894FFCF0B
:1009E800100000000A0001001000000001000A00C9
:1009F8001010F80000000010101040400000000027
:100A080010000405060705040302010000010203A3
:100A180001020300000000000101010101010202BE
:100A2800020200000000102040802010080402018B
:080A3800010204080204080198
:0A0A400001000100090001000000A0
:00000001FF
